:020000040800F2
:10000000D009002071030008B1220008BD220008B9
:10001000C5220008CD220008D522000800000000FB
:10002000000000000000000000000000DD030008E8
:10003000DD03000800000000DD030008DD220008E9
:10004000ED220008F922000805230008112300080A
:100050001D23000829230008310A00083523000861
:10006000DD03000841230008DD030008DD0300086C
:10007000DD030008DD030008DD030008DD030008E0
:10008000DD030008DD030008DD03000800000000B8
:10009000000000000000000000000000DD03000878
:1000A000DD030008DD030008DD030008DD030008B0
:1000B000750A00084D23000879230008A5230008CD
:1000C000B1230008BD230008C9230008D523000878
:1000D000E1230008DD030008ED230008F9230008F0
:1000E0000524000811240008DD03000800000000BA
:1000F0000000000000000000000000000000000000
:1001000000000000000000000000000000000000EF
:100110000000000000000000DD030008DD0300080F
:100120005FF808F180B485B000AF786039604FF0B7
:100130000003FB817B681B88FB817A684FF4305396
:10014000C4F201039A421FD07A684FF45053C4F2AC
:1001500001039A4218D07B68B3F1804F14D07A68BB
:100160004FF48063C4F200039A420DD07A684FF4D2
:100170000063C4F200039A4206D07A684FF44063E9
:10018000C4F200039A4208D1FB8923F07003FB817B
:100190003B685A88FB891343FB817A684FF480538C
:1001A000C4F200039A420FD07A684FF4A053C4F20D
:1001B00000039A4208D0FB8923F44073FB813B681B
:1001C000DA88FB891343FB817B68FA891A803B68D4
:1001D0009A887B689A853B681A887B681A857A6852
:1001E0004FF43053C4F201039A421BD07A684FF4A3
:1001F0005053C4F201039A4214D07A684FF48043FA
:10020000C4F201039A420DD07A684FF48843C4F2D5
:1002100001039A4206D07A684FF49043C4F2010376
:100220009A4204D13B681B7A1A467B681A867B681F
:100230004FF001029A8207F11407BD4680BC704757
:1002400080B483B000AF78600B46FB70FB78002B66
:1002500008D07B681B889BB243F001039AB27B688D
:100260001A8007E07B681B889BB223F001039AB2D7
:100270007B681A8007F10C07BD4680BC704700BF41
:1002800080B483B000AF786013460A467A807B70F2
:100290007B78002B08D07B689B899AB27B881343BC
:1002A0009AB27B689A810AE07B689B899AB27B88C4
:1002B0006FEA03039BB213409AB27B689A8107F1FD
:1002C0000C07BD4680BC704780B483B000AF786037
:1002D0000B467B807B886FEA03039AB27B681A82A5
:1002E00007F10C07BD4680BC704700BF80B485B0E5
:1002F00000AF78600B467B804FF00003FB734FF03C
:100300000003BB814FF000037B817B681B8A9AB29C
:100310007B881340BB817B689B899AB27B881340A2
:100320007B81BB89002B06D07B89002B03D04FF04B
:100330000103FB7302E04FF00003FB73FB7B1846E5
:1003400007F11407BD4680BC704700BF80B483B07E
:1003500000AF78600B467B807B886FEA03039AB21C
:100360007B681A8207F10C07BD4680BC704700BF4E
:1003700080B582B000AF48F29023C0F600037B60E6
:1003800040F20003C2F200033B600BE07B681A6896
:100390003B681A603B6803F104033B607B6803F130
:1003A00004037B603A6840F25453C2F200039A425D
:1003B000ECD3084808494FF000028842B8BF40F823
:1003C000042BFADB00F00EF800F0E6FE07F1080758
:1003D000BD4680BD54050020D005002080B400AF8C
:1003E000FEE700BF80B500AF4FF48053C4F20203B4
:1003F0004FF48052C4F20202126842F001021A6005
:100400004FF48052C4F202024FF48053C4F202034C
:1004100059684FF00003CFF6FF030B4053604FF4D1
:100420008053C4F202034FF48052C4F202021268F5
:1004300022F0847222F480321A604FF48053C4F2A6
:1004400002034FF48052C4F20202126822F48022A6
:100450001A604FF48053C4F202034FF48052C4F286
:100460000202526822F4FE025A604FF48053C4F232
:1004700002034FF41F029A604FF48053C4F2020348
:100480004FF00002DA6200F009F84FF46D43CEF24B
:1004900000034FF000629A6080BD00BF80B500AFDE
:1004A00000F002F880BD00BF80B483B000AF4FF011
:1004B00000037B604FF000033B604FF48053C4F2B5
:1004C00002034FF48052C4F20202126842F48032F6
:1004D0001A604FF48053C4F202031B6803F4003324
:1004E0003B607B6803F101037B603B68002B03D119
:1004F0007B68B3F5A06FECD14FF48053C4F20203D4
:100500001B6803F40033002B03D04FF001033B6062
:1005100002E04FF000033B603B68012B6DD14FF4CC
:100520008053C4F202034FF48052C4F202025268B4
:100530005A604FF48053C4F202034FF48052C4F265
:10054000020252685A604FF48053C4F202034FF41F
:100550008052C4F2020252685A604FF48053C4F2CF
:1005600002034FF48052C4F20202526822F47C1259
:100570005A604FF48053C4F202034FF48052C4F225
:100580000202526842F498125A604FF48053C4F247
:1005900002034FF48052C4F20202126842F08072E9
:1005A0001A6000BF4FF48053C4F202031B6803F0CB
:1005B0000073002BF6D04FF48053C4F202034FF4C3
:1005C0008052C4F20202526822F003025A604FF4D1
:1005D0008053C4F202034FF48052C4F20202526804
:1005E00042F002025A6000BF4FF48053C4F202038B
:1005F0005B6803F00C03082BF6D107F10C07BD462E
:1006000080BC704780B582B000AF4FF001004FF062
:10061000010101F093FC4FF07C03BB804FF001031C
:10062000BB714FF01003FB7107F104034FF400603E
:10063000C4F20100194600F02DFC4FF00103BB800D
:100640004FF00103BB714FF00403FB7107F104038A
:100650004FF40060C4F20100194600F01BFC00F0EA
:100660000DF800F03FF800F055F800F08DF800F0BC
:100670000BF907F10807BD4680BD00BF80B582B009
:1006800000AF4FF4C06001F0C9FE4FF006033B71AC
:100690004FF001037B714FF00003BB714FF001037A
:1006A000FB7107F10403184601F0CCFE4FF0000087
:1006B0004FF0000100F018FD4FF01C033B714FF0AC
:1006C00001037B714FF00103BB714FF00103FB711C
:1006D00007F10403184601F0B5FE07F10807BD460F
:1006E00080BD00BF80B582B000AF4FF001033B601A
:1006F0004FF000033B714FF008037B714FF0010393
:10070000BB713B46184601F08BFC07F10807BD465C
:1007100080BD00BF80B584B000AF4FF000037B8187
:100720004FF00003FB804FF063033B8145F6BF535E
:10073000BB8007F104034FF080401946FFF7F2FC3D
:100740004FF080404FF00101FFF7BEFD4FF08040B9
:100750004FF001014FF00102FFF792FD4FF0804092
:100760004FF00001FFF76CFD07F11007BD4680BD9B
:1007700080B500AF4FF40060C4F201004FF04001BB
:1007800000F08CFC80BD00BF80B500AF4FF400606E
:10079000C4F201004FF0400100F072FC80BD00BFC8
:1007A00080B500AF4FF40060C4F201004FF030019B
:1007B00000F074FC80BD00BF80B500AF4FF4006056
:1007C000C4F201004FF0100100F068FC4FF400602B
:1007D000C4F201004FF0200100F052FC80BD00BFC8
:1007E00080B500AF4FF40060C4F201004FF030015B
:1007F00000F046FC80BD00BF80B500AF4FF4006044
:10080000C4F201004FF0200100F048FC4FF40060FA
:10081000C4F201004FF0100100F032FC80BD00BFB7
:1008200080B500AF4FF40060C4F201004FF0040146
:1008300000F034FC4FF40060C4F201004FF00801F6
:1008400000F01EFC80BD00BF80B500AF4FF400601B
:10085000C4F201004FF0080100F020FC4FF40060EA
:10086000C4F201004FF0040100F00AFC80BD00BF9B
:1008700080B500AF4FF40060C4F201004FF00C01EE
:1008800000F0FEFB80BD00BF80B500AF4FF40060FC
:10089000C4F201004FF00C0100F000FC80BD00BF6D
:1008A00080B400AF40F25553C2F200031B78DBB2B4
:1008B000012B02D14FF0010301E04FF00003184675
:1008C000BD4680BC704700BF80B400AF40F25553B6
:1008D000C2F200034FF000021A70BD4680BC7047A0
:1008E00080B582B000AF0346FB7140F20103C2F253
:1008F00000031B78012B2CD140F20203C2F200034B
:100900001B78012B25D140F20103C2F200034FF006
:1009100000021A70FB79012B06D0022B07D0002BA6
:1009200008D1FFF77DFF05E0FFF78EFF02E0FFF73C
:100930009FFF00BF40F25453C2F200034FF0010288
:100940001A70FFF715FF4FF080404FF00101FFF7DD
:1009500077FC07F10807BD4680BD00BF90B486B0A4
:1009600000AF786040F25453C2F200034FF000022F
:100970001A7040F2A453C2F200034FF000021A6052
:100980004FF00003BB604FF00003FB604FF000032B
:100990003B614FF000037B6140F29C53C2F20003C5
:1009A0001A6813464FEA83039B184FEA4303BB6060
:1009B00040F2AC53C2F200031A6813464FEA8303B5
:1009C0009B184FEA43033B6140F2A053C2F200037D
:1009D0001A6813464FEA83039B184FEA4303FB60F0
:1009E00040F2A853C2F200031A6813464FEA830389
:1009F0009B184FEA43037B6140F20103C2F20003FC
:100A00004FF001021A7040F20003C2F200034FF0EF
:100A100001021A707B681C4607F108030FCB84E8BB
:100A20000F00786807F11807BD4690BC704700BFFB
:100A300080B500AF4FF0010001F08EFB0346002BA4
:100A400017D040F25453C2F200031B78DBB2012BE3
:100A50000BD140F2A453C2F200031B6803F1010260
:100A600040F2A453C2F200031A604FF0010001F0FB
:100A70009FFB80BD80B500AF4FF080404FF001017B
:100A8000FFF734FC0346002B00F002824FF0804059
:100A90004FF00101FFF75AFC40F25953C2F2000334
:100AA0001B78DBB203F10103DAB240F25953C2F210
:100AB00000031A7040F25953C2F200031B78DBB2F4
:100AC000022B0ED140F25A53C2F200034FF0010242
:100AD0001A7040F25953C2F200034FF000021A702C
:100AE00006E040F25A53C2F200034FF000021A70BF
:100AF00040F25553C2F200031B78DBB2002B40F0EA
:100B0000C08140F25453C2F200031B78DBB2012BC8
:100B100040F0B78140F25853C2F200031B78032B18
:100B200000F2A68101A252F823F000BF3D0B00089D
:100B30000B0C0008D90C0008A70D0008FFF730FEC9
:100B400040F25A53C2F200031B78DBB2012B40F093
:100B5000918140F20003C2F200031B78012B40F0A8
:100B6000898140F25753C2F200031B78012B33D125
:100B700040F25753C2F200034FF000021A7040F2E5
:100B8000A453C2F200031A6840F29853C2F2000361
:100B90001A6040F20003C2F200034FF000021A7024
:100BA00040F25453C2F200034FF000021A7040F2B8
:100BB0005653C2F200034FF001021A7040F258532C
:100BC000C2F200034FF000021A704FF080404FF065
:100BD0000001FFF735FB10E040F2A453C2F200031E
:100BE0001A6840F29C53C2F200031A6040F2585354
:100BF000C2F200034FF001021A7040F25A53C2F2DF
:100C000000034FF000021A7034E1FFF7E9FD40F2F3
:100C10005A53C2F200031B78DBB2012B40F02C8147
:100C200040F20003C2F200031B78012B40F0248144
:100C300040F25753C2F200031B78012B33D140F22C
:100C40005753C2F200034FF000021A7040F2A4534F
:100C5000C2F200031A6840F29853C2F200031A600D
:100C600040F20003C2F200034FF000021A7040F29B
:100C70005453C2F200034FF000021A7040F2565370
:100C8000C2F200034FF001021A7040F25853C2F250
:100C900000034FF000021A704FF080404FF0000147
:100CA000FFF7CEFA10E040F2A453C2F200031A6834
:100CB00040F2A053C2F200031A6040F25853C2F24D
:100CC00000034FF002021A7040F25A53C2F20003BE
:100CD0004FF000021A70CFE0FFF76EFD40F25A535A
:100CE000C2F200031B78DBB2012B40F0C78040F258
:100CF0000003C2F200031B78012B40F0BF8040F2DA
:100D00005753C2F200031B78012B33D140F25753E3
:100D1000C2F200034FF000021A7040F2A453C2F274
:100D200000031A6840F29853C2F200031A6040F2BE
:100D30000003C2F200034FF000021A7040F2545355
:100D4000C2F200034FF000021A7040F25653C2F292
:100D500000034FF001021A7040F25853C2F2000330
:100D60004FF000021A704FF080404FF00001FFF783
:100D700067FA10E040F2A453C2F200031A6840F28E
:100D8000AC53C2F200031A6040F25853C2F200039F
:100D90004FF003021A7040F25A53C2F200034FF0B0
:100DA00000021A706AE0FFF727FD40F25A53C2F2C0
:100DB00000031B78DBB2012B62D140F20003C2F2C8
:100DC00000031B78012B5BD140F25753C2F20003A2
:100DD0001B78012B18D140F25753C2F200034FF099
:100DE00000021A7040F2A453C2F200031A6840F2E3
:100DF0009853C2F200031A6040F25653C2F2000345
:100E00004FF001021A7010E040F2A453C2F2000346
:100E10001A6840F2A853C2F200031A6040F2555318
:100E2000C2F200034FF001021A7040F20003C2F256
:100E300000034FF000021A7040F25453C2F2000354
:100E40004FF000021A7040F25A53C2F200034FF002
:100E500000021A7040F25853C2F200034FF0000231
:100E60001A704FF080404FF00001FFF7E9F907E0FA
:100E700000BF06E000BF04E000BF02E000BF00E0EA
:100E800000BF40F2A453C2F200034FF000021A6008
:100E900080BD00BF80B489B000AF786039604FF08A
:100EA0000003FB614FF000033B614FF00003BB61A7
:100EB0004FF00003FB604FF000037B614FF0000335
:100EC000BB603B68DB7803F00F03FB613B68DB78BA
:100ED00003F01003002B04D03B689B78FA6913439E
:100EE000FB613B681B88DBB2002B4ED07B681B6824
:100EF0007B614FF00003BB6141E0BB694FF0010231
:100F000002FA03F3FB603B681B881A46FB68134038
:100F10003B613A69FB689A422DD1BB694FEA830372
:100F2000FB60FB684FF00F0202FA03F3BB60BB6883
:100F30006FEA03037A6913407B61FB68FA6902FA7E
:100F400003F37A6913437B613B68DB78282B07D175
:100F5000BB694FF0010202FA03F27B685A610AE0B2
:100F60003B68DB78482B06D1BB694FF0010202FADF
:100F700003F27B681A61BB6903F10103BB61BB69C2
:100F8000072BBAD97B687A691A603B681B88FF2BEC
:100F900053D97B685B687B614FF00003BB6146E01F
:100FA000BB6903F108034FF0010202FA03F3FB608F
:100FB0003B681B881A46FB6813403B613A69FB6833
:100FC0009A4230D1BB694FEA8303FB60FB684FF064
:100FD0000F0202FA03F3BB60BB686FEA03037A698E
:100FE00013407B61FB68FA6902FA03F37A691343E1
:100FF0007B613B68DB78282B08D1BB6903F10803D0
:101000004FF0010202FA03F27B685A613B68DB7819
:10101000482B08D1BB6903F108034FF0010202FA23
:1010200003F27B681A61BB6903F10103BB61BB6911
:10103000072BB5D97B687A695A6007F12407BD464A
:1010400080BC704780B485B000AF78600B467B8071
:101050004FF00003FB737B689A687B881340002B7A
:1010600003D04FF00103FB7302E04FF00003FB736A
:10107000FB7B184607F11407BD4680BC704700BFD4
:1010800080B483B000AF78600B467B807A887B6841
:101090001A6107F10C07BD4680BC704780B483B06D
:1010A00000AF78600B467B807A887B685A6107F1D5
:1010B0000C07BD4680BC704780B483B000AF786039
:1010C00013460A467A807B707B78002B03D07A889F
:1010D0007B681A6102E07A887B685A6107F10C0725
:1010E000BD4680BC704700BF90B484B000AF0246DC
:1010F0000B46FA71BB714FF00003FB60BB7903F044
:1011000003034FEA83034FF00F0202FA03F3FB607D
:101110004FF00003C4F20103BA794FEA9202D2B24F
:1011200010464FF00002C4F20102B9794FEA910172
:10113000C9B201F1020152F82110FA686FEA020205
:10114000114000F1020243F822104FF00003C4F2F4
:101150000103BA794FEA9202D2B210464FF0000270
:10116000C4F20102B9794FEA9101C9B201F1020159
:1011700052F82110FC79BA7902F003024FEA820298
:1011800004FA02F2114300F1020243F8221007F1BF
:101190001007BD4690BC704780B598B000AF4FF0C7
:1011A0004603FB654FF03C03BB654FF046037B6590
:1011B00040F276233B654FF40C73FB644FF42573C8
:1011C000BB644FF000037B644FF000033B644FF0BF
:1011D0000003FB6300F0A8FBFFF714FA00F0BCFA71
:1011E0004FF0010000F054FA48F20012C0F600027D
:1011F00007F1340312681146198003F102034FEA24
:1012000012421A704FF0000387F837304FF0000396
:1012100087F8383048F20012C0F6000207F12C03BC
:1012200012681146198003F102034FEA12421A7044
:101230004FF0000387F82F304FF0000387F830306D
:1012400048F20012C0F6000207F1240312681146AA
:10125000198003F102034FEA12421A704FF00003A3
:1012600087F827304FF0000387F8283048F2001243
:10127000C0F6000207F11C0312681146198003F141
:1012800002034FEA12421A704FF00003FB774FF04F
:10129000000387F8203048F20012C0F6000207F180
:1012A000140312681146198003F102034FEA124237
:1012B0001A704FF00003FB754FF000033B764FF0C0
:1012C00000037B604FF00003BB604FF00003FB6046
:1012D0004FF000033B614FF0000387F83B3097F875
:1012E0003B301846FFF7FCFAFFF7DAFA0346012B0A
:1012F00040F08380FFF7E8FA07F104031846FFF790
:101300002DFB7A68FB6DD21A13464FEA03239A1A13
:10131000396DFB6DCB1AB2FBF3F37B64BA68BB6D1E
:10132000D21A13464FEA03239A1AF96CBB6DCB1AF3
:10133000B2FBF3F303F11E033B64FA687B6DD21A30
:1013400013464FEA03239A1AB96C7B6DCB1AB2FB92
:10135000F3F3A3F12803FB634FF0010000F098F9C9
:1013600007F13403184648F2FC01C0F600017A6C1C
:1013700001F0DCF807F1340318464FF000014FF09C
:10138000000200F0C9F907F12C03184648F2FC01ED
:10139000C0F60001FA6B01F0C9F807F12C031846FA
:1013A0004FF001014FF0010200F0B6F907F12403FC
:1013B000184648F2FC01C0F600013A6C01F0B6F89C
:1013C00007F1240318464FF006014FF0000200F029
:1013D000A3F93B6907F11C02104648F2FC01C0F674
:1013E00000011A4601F0A2F807F11C0318464FF05D
:1013F00006014FF0010200F08FF94FF47A7000F00F
:1014000027FB6CE780B582B000AF0346FB714FF459
:101410008050C4F201004FF480614FF00102FFF7E9
:101420004BFEFB7903F00103DBB24FF48050C4F2B2
:1014300001004FF008011A46FFF73EFEFB7903F06A
:101440000203DBB24FF48050C4F201004FF00401FC
:101450001A46FFF731FEFB7903F00403DBB24FF4C9
:101460008050C4F201004FF002011A46FFF724FE3B
:10147000FB7903F00803DBB24FF48050C4F20100A3
:101480004FF001011A46FFF717FE4FF48050C4F2E7
:1014900001004FF480614FF00002FFF70DFE07F1ED
:1014A0000807BD4680BD00BF80B582B000AF4FF0D9
:1014B0000003FB714FF48050C4F201004FF48061CF
:1014C0004FF00102FFF7F8FD4FF48050C4F2010025
:1014D0004FF00801FFF7B6FD03461A46FB791343A8
:1014E000FB714FF48050C4F201004FF00401FFF78C
:1014F000A9FD03464FEA4303DAB2FB791343DBB29B
:10150000FB714FF48050C4F201004FF00201FFF76D
:1015100099FD03464FEA8303DAB2FB791343DBB24A
:10152000FB714FF48050C4F201004FF00101FFF74E
:1015300089FD03464FEAC303DAB2FB791343DBB2FA
:10154000FB714FF48050C4F201004FF480614FF002
:101550000002FFF7B1FDFB79184607F10807BD4609
:1015600080BD00BF80B582B000AF4FF00003FB71BB
:1015700040F2B053C2F200034FF00F021A8040F263
:10158000B053C2F200034FF04802DA704FF48050BB
:10159000C4F2010040F2B051C2F20001FFF77AFC40
:1015A0004FF48050C4F201004FF400614FF001028B
:1015B000FFF782FD4FF48050C4F201004FF48051D8
:1015C0004FF00002FFF778FDFFF76EFF03464FEA8A
:1015D0000313DAB2FB791343DBB2FB71FFF764FF4D
:1015E00003461A46FB791343FB7140F2B053C2F233
:1015F00000034FF00F021A8040F2B053C2F2000312
:101600004FF01002DA704FF48050C4F2010040F243
:10161000B051C2F20001FFF73DFCFB79184607F11B
:101620000807BD4680BD00BF80B582B000AF03464D
:10163000FB714FF48050C4F201004FF400614FF091
:101640000002FFF739FD4FF48050C4F201004FF45F
:1016500080514FF00102FFF72FFDFB794FEA131382
:10166000DBB21846FFF7CEFEFB7903F00F03DBB2C7
:101670001846FFF7C7FE00BFFFF774FF0346DBB253
:101680005BB2002BF8DB07F10807BD4680BD00BF49
:1016900080B582B000AF0346FB714FF48050C4F2B6
:1016A00001004FF4C0514FF00002FFF705FDFB7938
:1016B0004FEA1313DBB21846FFF7A4FEFB7903F0E1
:1016C0000F03DBB21846FFF79DFE00BFFFF74AFF8E
:1016D0000346DBB25BB2002BF8DB07F10807BD461F
:1016E00080BD00BF80B582B000AF02460B46FA71E4
:1016F000BB71BB794FEA8313DAB2FB79D318DBB243
:10170000DBB263F07F03DBB2DBB21846FFF7C0FF4A
:1017100007F10807BD4680BD80B582B000AF786094
:1017200013460A46FA70BB70FA78BB781046194621
:10173000FFF7D8FF08E07B681B787A6802F10102A6
:101740007A601846FFF770FF7B681B78002BF2D198
:1017500007F10807BD4680BD80B582B000AF4FF0ED
:101760000003FB714FF000033B6040F2B053C2F244
:10177000000341F60F421A8040F2B053C2F2000358
:101780004FF003029A7040F2B053C2F200034FF0E0
:101790001002DA704FF48050C4F2010040F2B051F0
:1017A000C2F20001FFF776FB4FF48050C4F2010053
:1017B0004FF4E051FFF772FC4FF000033B6003E091
:1017C0003B6803F101033B603A6849F2DF33C0F242
:1017D00004039A42F4D94FF00003FB7116E04FF076
:1017E0000300FFF70FFE4FF000033B6003E03B6890
:1017F00003F101033B603A6847F22F539A42F6D94E
:10180000FB79DBB203F10103DBB2FB71FB79DBB2E5
:10181000022BE4D94FF00200FFF7F4FD4FF0000374
:101820003B6003E03B6803F101033B603A6841F22F
:101830006F739A42F6D94FF02800FFF729FF4FF057
:101840000800FFF725FF4FF00100FFF721FF4FF0E1
:101850000600FFF71DFF4FF00C00FFF719FF07F11F
:101860000807BD4680BD00BF80B483B000AF03460B
:101870003960FB7197F90730002B10DA4FF46D4394
:10188000CEF20003FA7902F00F02A2F104013A68E5
:10189000D2B24FEA0212D2B25B181A760DE04FF4C0
:1018A0006143CEF2000397F907103A68D2B24FEACB
:1018B0000212D2B25B1883F8002307F10C07BD4671
:1018C00080BC704780B582B000AF78607A686FF0F6
:1018D0007F439A4202D94FF001031FE04EF21003FA
:1018E000CEF200037A6822F07F4202F1FF325A60A2
:1018F0004FF0FF304FF00F01FFF7B6FF4EF210032D
:10190000CEF200034FF000029A604EF21003CEF2C6
:1019100000034FF007021A604FF00003184607F16A
:101920000807BD4680BD00BF80B500AF00F006F8D7
:1019300000F056F800F06EF880BD00BF80B582B0B0
:1019400000AF4FF4803000F0ADF800F0EFF8034640
:10195000FB71FB79012B2FD14FF0020000F066FCE8
:101960004FF0100000F082FC4FF0000000F074F91E
:101970004FF0000000F0B0F94FF4806000F08CF9F7
:101980004FF480304FF4802100F002F94FF0010055
:1019900000F022F900BF4FF0390000F0F9FA0346D9
:1019A000002BF8D04FF0020000F026F900BF00F045
:1019B00043F90346082BFAD140F2B450C2F20000BA
:1019C00000F0ACF945F6BF50FFF77CFF40F6FD1084
:1019D0004FF0010100F088FA07F10807BD4680BD0D
:1019E00080B582B000AF4FF01003FB714FF00103E0
:1019F000BB714FF44073BB8007F104034FF4805078
:101A0000C4F201001946FFF745FA07F10807BD4681
:101A100080BD00BF80B400AFBD4680BC704700BF32
:101A200080B400AF40F2C853C2F200031B68002B21
:101A30000BD040F2C853C2F200031B6803F1FF321F
:101A400040F2C853C2F200031A60BD4680BC704722
:101A500080B483B000AF78607A6840F2C853C2F2B5
:101A600000031A6000E000BF40F2C853C2F2000356
:101A70001B68002BF7D107F10C07BD4680BC7047EF
:101A800080B400AF40F25C53C2F200031B6803F164
:101A9000010240F25C53C2F200031A60BD4680BCF2
:101AA000704700BF80B483B000AF78604FF48053BC
:101AB000C4F202034FF48052C4F20202126822F40C
:101AC00080321A604FF48053C4F202034FF4805204
:101AD000C4F20202126822F480221A607B68B3F515
:101AE000803F03D0B3F5802F0DD019E04FF4805321
:101AF000C4F202034FF48052C4F20202126842F4AC
:101B000080321A600DE04FF48053C4F202034FF4A8
:101B10008052C4F20202126842F4A0221A6000E06D
:101B200000BF07F10C07BD4680BC704780B582B08E
:101B300000AF4FF000033B604FF00003FB714FF02C
:101B40000003BB714FF0310000F022FA0346BB7175
:101B50003B6803F101033B603B68B3F5A06F02D023
:101B6000BB79002BEED04FF0310000F011FA0346A4
:101B7000002B03D04FF00103FB7102E04FF0000394
:101B8000FB71FB79184607F10807BD4680BD00BF11
:101B900080B485B000AF786039604FF00003FB601F
:101BA0004FF48053C4F202035B68FB60FB6823F4CC
:101BB0007413FB607A683B681343FA681343FB6055
:101BC0004FF48053C4F20203FA685A6007F1140715
:101BD000BD4680BC704700BF80B483B000AF0346F1
:101BE000FB714FF06003C4F24223FA791A6007F1E7
:101BF0000C07BD4680BC704780B485B000AF7860EC
:101C00004FF00003FB604FF48053C4F202035B68A3
:101C1000FB60FB6823F00303FB60FA687B681343F7
:101C2000FB604FF48053C4F20203FA685A6007F174
:101C30001407BD4680BC704780B400AF4FF480539A
:101C4000C4F202035B68DBB203F00C03DBB218469C
:101C5000BD4680BC704700BF80B485B000AF7860DF
:101C60004FF00003FB604FF48053C4F202035B6843
:101C7000FB60FB6823F0F003FB60FA687B681343AA
:101C8000FB604FF48053C4F20203FA685A6007F114
:101C90001407BD4680BC704780B485B000AF786043
:101CA0004FF00003FB604FF48053C4F202035B6803
:101CB000FB60FB6823F4E063FB60FA687B68134316
:101CC000FB604FF48053C4F20203FA685A6007F1D4
:101CD0001407BD4680BC704780B485B000AF786003
:101CE0004FF00003FB604FF48053C4F202035B68C3
:101CF000FB60FB6823F46053FB607B684FEAC3031F
:101D0000FA681343FB604FF48053C4F20203FA688D
:101D10005A6007F11407BD4680BC704780B489B093
:101D200000AF78604FF00003FB614FF00003BB6130
:101D30004FF000037B614FF000033B614FF0000365
:101D4000FB604FF48053C4F202035B6803F00C03A2
:101D5000FB61FB69042B0AD0082B0FD0002B47D165
:101D60007A684FF49053C0F27A03136047E07A68C0
:101D70004FF49053C0F27A03136040E04FF4805365
:101D8000C4F202035B6803F47013BB614FF4805329
:101D9000C4F202035B6803F480337B61BB694FEAE2
:101DA000934303F10203BB617B69002B09D1BA693C
:101DB0004FF41063C0F23D0303FB02F27B681A602C
:101DC0001DE04FF48053C4F20203DB6A03F00F03FB
:101DD00003F10103FB604FF49053C0F27A03FA68F9
:101DE000B3FBF2F3BA6902FB03F27B681A6006E008
:101DF0007A684FF49053C0F27A03136000BF4FF437
:101E00008053C4F202035B6803F0F003FB61FB69DB
:101E10004FEA1313FB6140F20403C2F20003FA69B4
:101E20009B181B78DBB23B617B681A683B6922FA1E
:101E300003F27B685A604FF48053C4F202035B687C
:101E400003F4E063FB61FB694FEA1323FB6140F29B
:101E50000403C2F20003FA699B181B78DBB23B61F2
:101E60007B685A683B6922FA03F27B689A604FF4F8
:101E70008053C4F202035B6803F46053FB61FB69A7
:101E80004FEAD323FB6140F20403C2F20003FA6974
:101E90009B181B78DBB23B617B685A683B6922FA6E
:101EA00003F27B68DA604FF48053C4F202035B688C
:101EB00003F44043FB61FB694FEA9333FB6140F25B
:101EC0001403C2F20003FA699B181B78DBB23B6172
:101ED0007B68DA683B69B2FBF3F27B681A6107F151
:101EE0002407BD4680BC704780B483B000AF7860E3
:101EF0000B46FB70FB78002B0CD04FF48053C4F2E0
:101F000002034FF48052C4F2020291697A680A43D4
:101F10009A610DE04FF48053C4F202034FF48052F3
:101F2000C4F2020291697A686FEA02020A409A6179
:101F300007F10C07BD4680BC704700BF80B483B07A
:101F400000AF78600B46FB70FB78002B0CD04FF491
:101F50008053C4F202034FF48052C4F20202D169EA
:101F60007A680A43DA610DE04FF48053C4F2020349
:101F70004FF48052C4F20202D1697A686FEA020219
:101F80000A40DA6107F10C07BD4680BC704700BF0C
:101F900080B487B000AF0346FB714FF00003FB60D5
:101FA0004FF000037B614FF00003FB74FB794FEAB5
:101FB0005313DBB2FB60FB68012B06D14FF4805357
:101FC000C4F202031B687B610FE0FB68022B06D1A1
:101FD0004FF48053C4F202031B6A7B6105E04FF4A7
:101FE0008053C4F202035B6A7B61FB7903F01F0339
:101FF000FB60FB687A6922FA03F303F00103002B0C
:1020000003D04FF00103FB7402E04FF00003FB74B8
:10201000FB7C184607F11C07BD4680BC704700BF1B
:1020200080B485B000AF78604FF00003FB604FF4E0
:102030008063C4F20103FB607B689B79002B78D03E
:102040004FF48063C4F201034FF48062C4F20102D2
:1020500011687A6812686FEA02020A401A604FF447
:102060008063C4F201034FF48062C4F2010251683C
:102070007A6812686FEA02020A405A607B681B792C
:10208000FA68D318FB60FB68FA6811687A6812680E
:102090000A431A604FF48063C4F201034FF4806274
:1020A000C4F2010291687A6812686FEA02020A407B
:1020B0009A604FF48063C4F201034FF48062C4F26B
:1020C0000102D1687A6812686FEA02020A40DA6097
:1020D0007B685B79102B1AD14FF48063C4F2010343
:1020E0004FF48062C4F2010291687A6812680A4370
:1020F0009A604FF48063C4F201034FF48062C4F22B
:102100000102D1687A6812680A43DA601FE04FF46E
:102110008063C4F20103FB607B685B79FA68D318C3
:10212000FB60FB68FA6811687A6812680A431A60F3
:102130000DE07B681B79FA68D318FB60FB68FA68CE
:1021400011687A6812686FEA02020A401A6007F1A1
:102150001407BD4680BC704780B485B000AF78607E
:102160004FF00003FB734FF00003BB604FF480633C
:10217000C4F201031A687B681340BB604FF48063AC
:10218000C4F201035A697B681340002B06D0BB6878
:10219000002B03D04FF00103FB7302E04FF000036C
:1021A000FB73FB7B184607F11407BD4680BC7047E4
:1021B00080B483B000AF78604FF48063C4F2010351
:1021C0007A685A6107F10C07BD4680BC704700BFB2
:1021D00080B485B000AF786040F26053C2F2000373
:1021E0001B68002B08D140F26053C2F2000340F29A
:1021F000D052C2F200021A6040F26053C2F20003F1
:102200001B68FB6040F26053C2F200031A687B68EF
:10221000D21840F26053C2F200031A60FB681846FD
:1022200007F11407BD4680BC704700BF80B485B07D
:1022300000AF78604FF00003FB604FF40053C4F22E
:1022400002031B68FB60FB6803F03803FB60FA685D
:102250007B681343FB604FF40053C4F20203FA6837
:102260001A6007F11407BD4680BC704780B483B084
:1022700000AF78604FF40053C4F202034FF40052F1
:10228000C4F20202126822F010021A604FF40053E6
:10229000C4F202034FF40052C4F2020211687A68D9
:1022A0000A431A6007F10C07BD4680BC704700BFA7
:1022B00080B400AFBD4680BC704700BF80B400AFA3
:1022C000FEE700BF80B400AFFEE700BF80B400AF00
:1022D000FEE700BF80B400AFFEE700BF80B500AFEF
:1022E000FFF79EFBFFF7CCFB80BD00BF80B400AFC3
:1022F000BD4680BC704700BF80B400AFBD4680BC07
:10230000704700BF80B400AFBD4680BC704700BFBF
:1023100080B400AFBD4680BC704700BF80B400AF42
:10232000BD4680BC704700BF80B400AFBD4680BCD6
:10233000704700BF80B400AFBD4680BC704700BF8F
:1023400080B400AFBD4680BC704700BF80B500AF11
:102350004FF48060C4F200004FF00101FDF7C6FFAA
:102360000346002B07D04FF48060C4F200004FF00A
:102370000101FDF7EBFF80BD80B500AF4FF40060B9
:10238000C4F200004FF00101FDF7B0FF0346002B3F
:1023900007D04FF40060C4F200004FF00101FDF7D8
:1023A000D5FF80BD80B400AFBD4680BC704700BF84
:1023B00080B400AFBD4680BC704700BF80B400AFA2
:1023C000BD4680BC704700BF80B400AFBD4680BC36
:1023D000704700BF80B400AFBD4680BC704700BFEF
:1023E00080B400AFBD4680BC704700BF80B400AF72
:1023F000BD4680BC704700BF80B400AFBD4680BC06
:10240000704700BF80B400AFBD4680BC704700BFBE
:1024100080B400AFBD4680BC704700BF80B483B0BD
:1024200000AF78604FF46D43CEF200037A6842F05B
:10243000BF6242F40032DA6007F10C07BD4680BC8F
:10244000704700BF80B487B000AF78604FF00003E2
:102450007B614FF000033B614FF00F03FB607B6833
:10246000DB78002B47D04FF46D43CEF20003DB68DE
:102470006FEA030303F4E0634FEA13237B617B6994
:10248000C3F104033B617B69FA6822FA03F3FB6042
:102490007B685B781A463B6902FA03F37B617B68D1
:1024A0009B781A46FB6813407A6913437B617B690A
:1024B0004FEA03137B614FF46143CEF200037A6865
:1024C000127811467A69D2B25B1883F800234FF470
:1024D0006143CEF200037A6812784FEA5212D2B208
:1024E0007968097801F01F014FF0010000FA01F14D
:1024F00043F8221014E04FF46143CEF200037A68EF
:1025000012784FEA5212D2B27968097801F01F01AD
:102510004FF0010000FA01F102F1200243F822100D
:1025200007F11C07BD4680BC704700BF0EB4F0B574
:102530009CB021AC54F8042B40F208136FF0004516
:10254000C2F20003064602A90495079518684FF4E5
:10255000027723464FF6FF75ADF814700296069683
:10256000ADF81650019400F009F8029900220A70A3
:102570001CB0BDE8F04003B0704700BF2DE9F04F3C
:10258000C3B08A4690460E93814603F037F8006840
:10259000002112900020CDE91401129804F098F95E
:1025A000BAF80C301D9003F080010AB222B1DAF8BB
:1025B0001000002801F02C8000260A9618961E961E
:1025C00017961B961C96109646463378002B00F003
:1025D000E585252B00F0E285711C01E0252D04D056
:1025E0000D780C460131002DF8D1A51B002D40F0CF
:1025F00008812278002A00F0E08000204FF0FF3CA4
:1026000004F1010894F801B00F908DF8830009904F
:1026100020252B24674608F10108ABF120035A2B33
:1026200000F2BE81DFE813F0CF01BC01BC01D9018B
:10263000BC01BC01BC01D700BC01BC0151025E025F
:10264000BC01FD00E601BC0101020802080208020B
:10265000080208020802080208020802BC01BC01C4
:10266000BC01BC01BC01BC01BC011902BC016A0275
:102670007602190219021902BC01BC01BC01BC019D
:102680009002BC01BC019702BC01BC01BC01AF02BD
:10269000BC01DA02BC01BC01F602BC01BC01BC01F8
:1026A000BC01BC01BC01BC01BC011902BC016A0235
:1026B0000F0319021902190221030F032D03BC0194
:1026C0003403BC0140034E035E036302BC01AF024E
:1026D000EA000401BC01BC019801BC01EA00002F22
:1026E00040F0EB85DDF8448017945D465E4528BFD9
:1026F0005E46229B0A9A934202DB099FFF0708D598
:1027000048465146129A1D9B04F098F901304ED06C
:10271000229B0A99AC1BCA1AA242B8BF1446002CCD
:102720000ADD484651463246234604F087F9013017
:102730003DD0229D0A98421B24EAE477D51B002D48
:1027400040F39684102D40F3D68710234846514617
:10275000A54A04F073F9A5F111040130C4F3001780
:1027600025D0103D102D40F3C6879FB11023484659
:1027700051469D4A04F062F9013018D0103D102DE9
:1027800008DC00F0B8BF04F059F901300FD0102D6B
:1027900040F3B18710235146934A484604F04EF95E
:1027A000203D1023013051468F4A4846EBD10C9F03
:1027B0001FB148460C9902F057FEBAF80C3003F0EE
:1027C0004001109C08B2002818BF4FF0FF3420468B
:1027D00043B0BDE8F08F484602F010FF40681C90FF
:1027E00004F076F81B90484602F008FF83681B98B7
:1027F000179318B1179A002A40F0FD8698F800B098
:1028000009E74846514632462B4604F017F9013095
:10281000D3D0109F7F191097EBE60F9B0E92584272
:102820000F90099A42F00401099198F800B0F2E67D
:10283000099DBC46A80640F1DA810E9B0121D81DF6
:1028400020F0070202F108060E96D2E900450026A4
:102850008DF88360BCF1000F03DB099F27F0800037
:10286000099054EA050E40F0AD82BCF1000F40F033
:10287000A982002940F06C84099CE40740F1688437
:1028800042AE302206F8012D01246445ACBF234638
:102890006346002000220D939DF883300C92CDF802
:1028A0004CC019901A90169013B10D98471C0D97B3
:1028B000099F17F00202119202D00D99881C0D9009
:1028C000DDF824C01CF0840ECDF81CE040F0368208
:1028D0000F9DDDF834C0CCEB0505002D40F32E82B2
:1028E000102D40F32082A5F11107102348465146D0
:1028F0003E4AC7F300171F9704F0A0F801303FF4D9
:1029000056AF103D102D40F30E821F9B63B1102374
:1029100048465146354A04F091F801303FF447AF3C
:10292000103D102D40F3FF81079F07E004F086F86B
:1029300001303FF43CAF102D40F3F4811023514699
:102940002A4A484604F07AF8203D102301305146C7
:10295000264A4846EAD12AE7254EBC461896099EE3
:10296000B70640F15E810E9BD81D20F0070202F1F0
:1029700008050E95D2E90045099EF0070AD554EAEC
:10298000050E07D0302746F002018DF884708DF8CF
:1029900085B00991099B022123F48060099056E7D4
:1029A000BBF1000F3FF409AF0026012433460D941C
:1029B0008DF8A4B08DF883600C93139319931A9338
:1029C000169329AE74E79DF8830000287FF416AFB4
:1029D0008DF8835098F800B01DE6099941F0010385
:1029E000099398F800B016E6088100085C81000899
:1029F00028810008414611F801BBBBF12A0F01F004
:102A00000982ABF130030022092B01F2D38011F8C7
:102A100001BB02EB820703EB4702ABF13003092B4A
:102A20008846F4D942EAE277F7E5099A42F0800055
:102A3000099098F800B0EEE542460023ABF1300073
:102A400012F801BB03EB8303ABF13001092900EB62
:102A500043039046F2D90F93DFE50E9DBE46EC1D71
:102A600024F007010F684D6808310E913846294659
:102A7000CDE9140129463846CDF820E003F0ACFE3C
:102A80000128DDF820C03846294640F02185002283
:102A9000002304F0F7FF002840F011869DF88330F2
:102AA0000026099F9B4C0C969B4E0022032027F08A
:102AB0008001BBF1470FD8BF26460D90099104460F
:102AC000139219921A921692EEE60E990E980B68CE
:102AD000021D0F930F990029FFF69FAE98F800B0E2
:102AE0000E9298E58DF8834098F800B093E5099927
:102AF00041F02002099298F800B08CE50E9E0E9FDE
:102B0000316801240026381D33460D940E908DF84F
:102B1000A4104FE7099CBC4644F010070997099D93
:102B2000A80640F195800E9AD61D26F00701D1E93E
:102B3000002308310E9114461D46002A73F1000E41
:102B4000C0F28884012185E6099941F008030993C0
:102B500098F800B05FE5099CBC4644F0100709975F
:102B600009998F0640F1B3800E9FF91D21F00705EA
:102B700005F108030E93D5E900450998002120F4DA
:102B80008062099263E60E9C00252668211DBE46E0
:102B90000E918DF88350002E00F03A86BEF1000FA2
:102BA0003046C0F2CD8529467246CDF820E002F0CD
:102BB000CBFFDDF820C0002800F0E586841B6445CB
:102BC0000C9540F357852CEAEC720D929DF88330FA
:102BD0006446139519951A95169565E6099CBC46A9
:102BE00044F010020992099DA8063FF526AE099E01
:102BF000F10600F1CD83099F7A0600F15885099905
:102C00008B0540F1C5830E9B0121181D1C78002502
:102C10000E901CE6099E414DBC46B70618953FF53F
:102C2000A2AE099CE60600F1AC83099F7D0600F187
:102C3000378509998C0540F1A4830E9B0025181D4A
:102C40001C780E9098E6099DBC46A8063FF56BAF30
:102C50000998C10640F116840E9C2368201DDD17DB
:102C60001C461A460E902B4667E798F800B041467E
:102C7000BBF1680F00F04A85099A42F040030993BE
:102C8000C9E4099B43F02000099098F800B0C2E421
:102C900098F800B04346BBF16C0F00F041850999EC
:102CA00041F010000990B6E4099CA00640F1DB83D6
:102CB0000E9C109A2068D7174760271D02600E9758
:102CC000464682E40999BC468F063FF54DAF099D03
:102CD000EE0640F1E9830E9A00251668141D0E9445
:102CE00034464AE70E9C099BBC460E9F25680C4A59
:102CF00030214FF0780B381D43F002062C468DF83A
:102D000084100E90002509968DF885B01892022146
:102D10009DE500BF188100081C8100083C81000867
:102D2000288100080797484651469A4A2B4603F0E7
:102D300085FE01303FF43BAD9DF88330002B40F021
:102D4000D080119A002A40F0DA800799802900F09B
:102D5000E380139B1F1B002F5DDD102F52DD10231E
:102D6000484651468C4A03F069FEA7F1110501302F
:102D7000C5F300153FF41BAD103F102F42DD9DB190
:102D8000102348465146844A03F058FE01303FF470
:102D90000EAD103F102F07DC34E003F04FFE013082
:102DA0003FF405AD102F2DDD102351467A4A4846D9
:102DB00003F044FE203F102301305146764A484636
:102DC000EBD1F4E4012900F0C78102290DF20717C5
:102DD00000F0A681072104EA0100E608EB08303084
:102DE00046EA4574C2B21D463E463A70013F54EA77
:102DF0000503F0D109993046C90700F1DD8142AFE2
:102E0000BC1B42E548465146634A3B4603F016FE6A
:102E100001303FF4CCAC099AD00540F12081BBF1E0
:102E2000650F40F3BB80DDE914010022002304F0AC
:102E30001FFE002840F0B5822299002940F39084BB
:102E40000A9C16980A9D8442A8BF0446002C35446B
:102E500008DD484651463246234603F0EFFD013077
:102E60003FF4A5AC169A24EAE477D71B002F40F371
:102E70001282102F40F30682102348465146464ADC
:102E800003F0DCFDA7F111040130C4F300143FF49A
:102E90008EAC103F102F40F3F581A4B110234846AB
:102EA00051463D4A03F0CAFD01303FF480AC103F6B
:102EB000102F08DCE6E103F0C1FD01303FF477ACF0
:102EC000102F40F3DF8110235146334A484603F068
:102ED000B5FD203F1023013051462F4A4846EAD124
:102EE00065E40123484651460DF1830203F0A6FD37
:102EF00001303FF45CAC119A002A3FF426AF022364
:102F00004846514621AA03F099FD01303FF44FACE9
:102F1000079980297FF41DAF0F980D9FC71B002FC5
:102F20007FF717AF102F40F33C81102348465146DE
:102F3000194A03F083FDA7F111050130C5F300150F
:102F40003FF435AC103F102F40F32B81A5B1102377
:102F500048465146104A03F071FD01303FF427AC5A
:102F6000103F102F08DC1CE103F068FD01303FF436
:102F70001EAC102F40F3158110235146064A4846D7
:102F800003F05CFD203F102301305146024A4846C1
:102F9000EAD10CE45C810008088100080A9C012346
:102FA000012C48465146324603DC099FFC0740F19C
:102FB000E58003F043FD01303FF4F9AB484651464C
:102FC000129A1D9B03F03AFD01303FF4F0ABDDE9AE
:102FD00014010022002304F04BFD002800F0C980FA
:102FE0000A9C651E002D40F3CE80102D40F378839F
:102FF000102348465146A14A03F020FD123C0130FF
:10300000C4F300173FF4D3AB0A9D113D102D40F3DC
:103010006783AFB1102348465146984A03F00EFD2E
:1030200001303FF4C4AB0A9D213D102D08DC57E36D
:1030300003F004FD01303FF4BAAB102D40F3508390
:10304000102351468D4A484603F0F8FC203D1023DA
:1030500001305146894A4846EAD1FFF7A8BB4846A5
:1030600051463246234603F0E9FC01303FF49FAB62
:10307000099B5B0743D50F9D0D996D1A002D3EDD11
:10308000102D33DD1023484651467D4A03F0D6FC0F
:10309000A5F111070130C7F300143FF488AB103DD0
:1030A000102D23DD9CB1102348465146744A03F08D
:1030B000C5FC01303FF47BAB103D102D07DC15E063
:1030C00003F0BCFC01303FF472AB102D0EDD102379
:1030D00051466B4A484603F0B1FC203D10230130B5
:1030E0005146674A4846EBD1FFF761BB4846514617
:1030F000634A2B4603F0A2FC01303FF458AB109E0C
:103100000D980F9F0C9AB842ACBF3618F61910965E
:10311000002A3FF4D5AD48460C9902F0A5F9CFE559
:10312000DDF860E00F2004EA000226090EEB02043D
:1031300046EA05712A09237815460C463E463B703F
:10314000013F54EA0502EED142A8841BFFF79DBB64
:10315000644642AEFFF799BB09220023AB4208BF89
:10316000A24234D3303442AE06F8014D0C46FFF78C
:103170008CBB0A9B48465146721C013B03F05EFC27
:1031800001303FF414AB4846514625AA1E9B03F07C
:1031900055FC01307FF46CAFFFF709BB3446FFF7F5
:1031A00028BA48465146354A3B4603F047FC0130B1
:1031B0007FF4CFADFFF7FBBA302A00F0BB8230249A
:1031C00042AB00F8014C3E46DC1BFFF75EBB099E9C
:1031D000002206F4806142ABCDF83080CDF84490F7
:1031E0000A929846CDF834C00E461746DDF85C903A
:1031F0000AE0204629460A22002304F093FC0446F4
:103200000D4654EA050E2AD0204629460A220023FC
:1032100004F088FC303208F8012C013708F1FF383F
:10322000002EE6D099F800008742E2D1FF2FE0D0CF
:1032300009220023AB4208BFA242DAD21B9F1C998D
:10324000C7EB08083A46404603F072FB99F80110B4
:103250000027002900F0A48309F10109C9E74646C7
:1032600042ACCDF85C90DDF83080DDF834C00A97D0
:10327000DDF84490A41BFFF708BB00BF08810008DD
:103280005C810008484651468F4A3B4603F0D6FB16
:1032900001303FF48CAA169B0999F6184B057FF56F
:1032A00028AA179C199FCDF84480AB461A9800288D
:1032B0003FF415AA002F00F0BB81013F484651465C
:1032C0001C9A1B9B03F0BAFB01303FF470AA2078D4
:1032D000C6EB0B05A842B8BF0546002D09DD4846E0
:1032E000514632462B4603F0A9FB01303FF45FAA5A
:1032F000207825EAE575C5EB0008B8F1000F40F32A
:10330000ED81B8F1100F40F3DF811023484651469C
:103310006D4A03F093FBA8F111050130C5F30015C8
:103320003FF445AAA8F11008B8F1100F40F3CC8182
:10333000BDB1102348465146634A03F07FFB01307C
:103340003FF435AAA8F11008B8F1100F09DCBBE171
:1033500003F074FB01303FF42AAAB8F1100F40F3D8
:10336000B38110235146584A484603F067FB1023A7
:1033700001305146544AA8F120084846E8D1FFF7E9
:1033800016BA0E9E0025311D34680E91FFF7F4BA6F
:103390000E9C2568211D0E912C4601210025FFF76A
:1033A00056BA012348465146484A03F047FB0130CC
:1033B0003FF4FDA922990A98814203DB099AD107BB
:1033C0007FF556AE48465146129A1D9B03F036FBD8
:1033D00001303FF4ECA90A9F7D1E002D7FF748AE17
:1033E000102D40F38881102348465146364A03F099
:1033F00025FB123F0130C7F300143FF4D8A90A9D02
:10340000113D102D40F37781ACB110234846514651
:103410002D4A03F013FB01303FF4C9A90A9D213D59
:10342000102D08DC67E103F009FB01303FF4BFA970
:10343000102D40F3608110235146234A484603F083
:10344000FDFA203D1023013051461F4A4846EAD17B
:10345000FFF7ADB92D23644265EB45058DF8833048
:103460000121FFF7F7B9099FF90600F1E6800998F5
:10347000420640F1DE810E9C271D20680E97109FAA
:1034800007801DE4099A520600F10681099EB305E2
:1034900040F1DB810E9F97F900403D1D0E95E51729
:1034A00022462B46FFF749BB099B5D0600F1ED80E4
:1034B0000998840540F108820E990D1D0E950C782F
:1034C0000025FFF75ABB00BF08810008588100089B
:1034D000CDF820C003F080F9DDF820C0002800F00E
:1034E000B480BBF1610F00F0C483BBF1410F00F069
:1034F000AE83BCF1FF3F00F04F84BBF1670F00F0DB
:10350000FC83BBF1470F00F0F88300200C90099A70
:10351000002D42F480731F93C0F2D68300201390D5
:10352000BBF1610F00F03E82BBF1410F00F03A8227
:10353000BBF1660F00F04283BBF1460F00F03E8303
:10354000BBF1650F00F03384BBF1450F00F02F8411
:10355000CDF828C002210A98009123AE24A922ACFC
:10356000019003963A462B46029404914846CDF8C2
:1035700020C000F001FEBBF1670F0646DDF820C059
:1035800040F0AF83099AD00700F1AF83249CA41BBD
:10359000BBF1670F0A9400F05D81BBF1470F00F0AB
:1035A0005981BBF1460F00F00984BBF1660F40F072
:1035B0005E84229A002A40F31B84BCF1000F40F085
:1035C000E2830998C30700F1DE831446099911F4D8
:1035D000806740F05781199716921A97139900291E
:1035E00040F07A811F9F24EAE4720D929DF88330A7
:1035F0000997FFF759B917990B78002B3FF4FEA8EC
:10360000099840F48062099298F800B0FFF703B877
:103610004846402102F000F8CAF80000CAF810003D
:10362000002800F01D844024CAF81440FEF7C4BFEF
:103630001A9B013C591E1A9140E60E9E1099336860
:10364000371D0E971960FFF73BBB0999A84FA94E8C
:10365000032421F080020C900D94BBF1470FD8BFDA
:103660003E4609929DF88330139019901A90169057
:10367000FFF71AB924EAE4700D909DF88330139592
:1036800019951A951695FFF70FB90E9B0025181D71
:103690001C880E90FFF771BA0E9FB7F90040FCE648
:1036A0000E9A151D0E9514880025FFF765B90E9A20
:1036B0000121161D148800250E96FFF7C8B82D238A
:1036C0008DF88330FFF7ECB9484651468A4A4346A5
:1036D00003F0B4F901303FF46AA820783618E5E524
:1036E00048465146844A2B4603F0A8F901307FF43E
:1036F0004AADFFF75CB8484651467F4A2B4603F077
:103700009DF901307FF4B4ACFFF751B8099808F186
:10371000010840F40072099291F801B0FEF77BBFF6
:10372000099A08F1010842F02001099193F801B0CB
:10373000FEF771BF0DF5847EC6EB0E04FFF7A5B84A
:103740000C9503F0C5F820EAE0750D950C9D044634
:103750009DF88330139519951A951695FFF7A4B81F
:10376000012348465146654A03F068F901303FF4A9
:103770001EA8229A2AB90A9F1FB9099CE2077FF561
:1037800077AC48465146129A1D9B03F057F9013019
:103790003FF40DA8229B5D42002D40F30082102DC6
:1037A00040F3F481102348465146534A03F046F94A
:1037B000A5F111070130C7F300143EF4F8AF103D36
:1037C000102D40F3E381A4B11023484651464A4AE4
:1037D00003F034F901303EF4EAAF103D102D08DC5F
:1037E000D4E103F02BF901303EF4E1AF102D40F3AA
:1037F000CD8110235146404A484603F01FF9203D31
:103800001023013051463C4A4846EAD1FEF7CFBF6B
:10381000BEF1060F34BF74460624334624EAE4762C
:103820000D960C93139319931A931693344EFFF736
:103830003BB8099B9B057FF500AF0E9E109A31683F
:10384000371D0E970A70FFF73BBA0E990B680C46AE
:10385000FFF704BA229BD91C1A4653DB9C4551DB67
:103860000A9C4FF0670BA342C0F233820999CC0740
:1038700040F1A2825C1C099F17F480607FD0002B6E
:1038800040F38582179900270B78199716921A979B
:103890000846FF2B0BD09A4209DD4178D21A79B144
:1038A0001A9B01305F1C0B46FF2B1A97F3D1179020
:1038B000169219981A9A1B9B111803FB01448DE666
:1038C000199F791C1991E4E70E9A00251668171DB7
:1038D0000E973446FFF751B91F992D2324EAE4705F
:1038E00000228DF883300D9009911392FEF7DDBF11
:1038F0002081000824810008088100085881000800
:1039000050810008ABF1020B5F1EBBF1610F2297E3
:1039100000F04882BBF1410F00F044825FFA8BF463
:103920000022002F8DF89440C0F26F822B218DF879
:103930009510092F00F3EA81002A40F053823024C9
:103940008DF896400DF19701303701F8017B0A9808
:1039500025AA8B1A01281E9300EB03040BDD01340A
:10396000099F002227F4806343F4807019921F900E
:103970001A92169232E60999CA07F1D5EFE7199023
:1039800016931A902AE62CEAEC730D930C909DF88E
:1039900083306446139019901A901690FEF784BFF6
:1039A0000F4626E422AA38462946CDF820C002F068
:1039B00047FF00224FF07F5303F0F2FD0022002367
:1039C000CDE90A0104F054F8DDF820C008B1012562
:1039D0002295BA49BA4A0CF1FF34BBF1610F08BF16
:1039E0000A461CF0010F0D94169237462DD0002385
:1039F0000022C4F23003DDE90A01CDF820C003F053
:103A0000CFFD0D46074604F065F8119003F062FD06
:103A100002460B463846294603F00EFC169B119CC5
:103A20000D9D1A5D374607F8012B05F1FF3C00227A
:103A30000023CDF834C0CDE90A01199604F018F836
:103A40003C46DDF820C0002863D100230022C4F2E8
:103A50003003DDE90A01CDF820C003F0A1FD0D46D9
:103A6000044604F037F8119003F034FD02460B468B
:103A70002046294603F0E0FB119BDDF858E00D9D40
:103A80001EF8032005F1FF3C1997002307F8012BCE
:103A90000022B5F1FF3FCDF834C0CDE90A013C4624
:103AA000DDF820C035D0CDF820C003F0E1FF0023C1
:103AB0000022C4F23003DDF820C050BBDDE90A016A
:103AC000CDF820C003F06CFD0D46044604F002F86A
:103AD000119003F0FFFC02460B462046294603F0F6
:103AE000ABFBDDF858E0119B0D9D1EF8032005F19E
:103AF000FF3C1997002307F8012B0022CDF834C0B2
:103B0000CDE90A0103F0B4FF3C46DDF820C00028EF
:103B10009BD00023DDE90A010022C3F6E073CDF853
:103B200020C003F0CDFFDDF820C0002840F0A680C3
:103B30000023DDE90A010022C3F6E073CDF820C0BE
:103B400003F096FFDDF820C018B11198C30700F10B
:103B50009580002DFFF61BAD013579193027E24322
:103B600004F8017B8B188C4203F001003FF40FAD89
:103B700020B104F8017B8C423FF409AD224602F8E3
:103B8000017B6770541C8C42F8D100E548465146D1
:103B90004C4A2B4602F052FF01303EF408AE484634
:103BA000514632460A9B02F049FF01307FF460AA79
:103BB000FEF7FDBD88460027FEF72FBD032122A892
:103BC00023AC24AE8DE802100290039404963A468A
:103BD0002B464846CDF820C000F0CEFADDF820C0D4
:103BE000064600EB0C04CDF828C03178302900F0EF
:103BF0001F81229BE4183846294600220023CDF875
:103C000020C003F035FFDDF820C000287FF4BFACF2
:103C1000249FBC4240F221813B463021F84303F807
:103C2000011B2218A342249302F001000DD020B101
:103C30000133A3427970249307D01F4607F8011B74
:103C400059707B1CA3422493F7D11C469FE430217A
:103C50008DF8841058230998BCF1630F40F00204DA
:103C60008DF88530099400F3AE8000260C9629AEBD
:103C70004DE430228DF884207823ECE71999DDF8A3
:103C800058E024919EF80F3017F8011C8B423B46F8
:103C90000BD13027754603F8017C249BE87B5A1E24
:103CA000249213F8011C8842F5D0392900F09D8038
:103CB0004F1CF8B203F8010C69E400BF288100082A
:103CC0003C810008088100082D2405F1004513946B
:103CD00026E4002B0A98D4BFC3F10204012424185F
:103CE000C9E5BBF1470F3FF44DAC0A9BBBF1460F52
:103CF00006EB03047FF47FAF77E7BCF1000F7FF49E
:103D000004ACCDF830C04FF0010C00E446F267641B
:103D10000DF1A200C6F2666484FB0721FA17C2EB1C
:103D2000A10101EB8103A7EB4307024607F1300035
:103D30001070501E09290F46EEDC30370DF1A30438
:103D4000F9B2844202F8011C40F29380A51AEF07F1
:103D50000DF1950013460DD58DF8961013460DF113
:103D6000960013F8011B05E013F8015B781C7D70C9
:103D700013F8011B471CA3424170F5D142ACC2EBC2
:103D80004401D639E3E50CF10103D4181EE4002206
:103D9000199216931A9221E400240C944FF0060C09
:103DA000FFF7B5BB0BF10F00C4B20122B9E50CF16E
:103DB00001060A96FFF7CEBB1C465CE5229A4FF03F
:103DC000660BFFF7F7BB0CF101014846CDF820C0A8
:103DD00001F022FCDDF820C00C9000284CD00C9E95
:103DE000FFF795BB0DF19601AEE5169A907A61E763
:103DF000BCF1000F2ED10999CF072BD40124002745
:103E0000199716921A97FFF7E9BB2D237F428DF879
:103E100095308EE50E9898F801B00768021D002FC6
:103E20000E928846BEF6F7AB4FF0FF37FEF7F3BBB6
:103E30003846294600220023CDF820C003F018FEA2
:103E4000DDF820C000287FF4D4AE0A9AC2F1010345
:103E50002293CFE60CF10204D1E73C46FFF797BB73
:103E60000C22C9F800204FF0FF30FEF7B1BC229BB6
:103E70004AE50DF196016AE5BAF80C4044F04003BA
:103E80009BB2AAF80C30FEF79ABC00BF2DE9F04FA8
:103E900003690C6983B09C42064600F36B81E01C09
:103EA00082008F18B5187B6868685A1CB0FBF2F561
:103EB00001F114030193013C043706F11408002DAD
:103EC00000F0BF804B69D8F8002098B24FEA134C3D
:103ED00005FB00F005FB0CF303EB104C1FFA8CFE06
:103EE00093B280B21B1ACEEB1242019802EB234E22
:103EF0001FFA83F901F1180249EA0E49381A06F14E
:103F00001803974243F8049CC0F380004FEA1C4C0E
:103F10004FEA2E4E72D328B310681B6882B2000C91
:103F200005FB02C205FB00F01FFA83FC00EB124008
:103F3000F44492B21FFA80FEC2EB0C0CCEEB13439A
:103F400003EB2C4E1FFA8CF242EA0E4C01F11C02DC
:103F500006F11C03974243F804CC4FEA2E4E4FEA79
:103F6000104C4BD3104650F804BBD3F800901FFA06
:103F70008BFA4FEA1B4B05FB0ACC05FB0BFB1FFA28
:103F800089FA0BEB1C4BD6441FFA8CFC1FFA8BFAF8
:103F9000CCEB0E0ECAEB194909EB2E4A1FFA8EFC28
:103FA00099464CEA0A4E49F804EBD2F804C05A6824
:103FB0001FFA8CF305FB03FE4FEA1C4C05FB0CF3C8
:103FC0000EEB1B4B03EB1B4C93B21FFA8CFE03EB67
:103FD0002A431FFA8BFBCBEB0303CEEB124202EB1F
:103FE000234E9AB24B4642EA0E49021D974243F8CD
:103FF000049B4FEA1C4C4FEA2E4EB3D2201D06EB19
:1040000080035A68EAB9181D984519D250F8042C53
:10401000B2B9043BC8EB0300C21C50070DD5013CEC
:1040200098450DD21A68043B3AB109E01868043B80
:1040300030B91A68013C043B12B9013C9845F5D3EC
:104040003461304602F02EFA0028C0F28280019AD4
:10405000D8F8001052F8040B1FFA81FC83B2000C50
:10406000C3EB0C03C0EB114101EB23401FFA83FEAD
:10407000019B4EEA004CF91A013543460014974261
:1040800043F804CBC1F380014BD3B9B152F804EB30
:1040900019681FFA8EF91FFA81FAC9EB0A094FEA6B
:1040A0001E4C4844CCEB114101EB204180B240EA68
:1040B000014043F8040B0814974232D3824611465C
:1040C00051F8040BD3F800E01FFA80F91FFA8EFBB9
:1040D0004FEA104CC9EB0B0B0BEB0A00CCEB1E4A62
:1040E0000AEB204980B29E4640EA09404EF8040B94
:1040F00050685A6883B21FFA82FC000CC3EB0C03B1
:1041000003EB2943C0EB124202EB23409AB242EA8E
:10411000004A0A1D7346974243F804AB4FEA204A0F
:10412000CDD2211D06EB8103586890B91A1D984520
:104130000ED252F8041C59B9043BC8EB0300C21C50
:10414000520713D5013C984502D21868043B68B168
:104150003461284603B0BDE8F08F1A68043B002A9A
:10416000F6D11968013C043B0029F1D1013C984586
:10417000F3D3EDE70020EDE72DE9F04F456A9FB05E
:1041800081462B9C92469B46002D00F06583296852
:1041900059B16B68012202FA03F24B608A6001F0A8
:1041A00021FED9F8240000210160BBF1000837DBB3
:1041B0000023236000200146C7F6F070C7F6F071B7
:1041C00008EA00038B4216D05046594600220023CD
:1041D00054465D4603F04CFC002827D02A9A2C9BBD
:1041E00001211160002B00F0CA80A148186001383D
:1041F0001FB0BDE8F08F2A9A42F20F711160BAF138
:10420000000F00F0A4809B482C9A002AF0D0C378BD
:10421000002B00F00D8200F108012C9A1160E7E7F5
:1042200028F0004801222260C346C3E71DAE1CAF40
:1042300052460096019748465B4602F06DFAC8F375
:104240000A520C90002A40F08B801C9F1D9C6FF43A
:1042500082653E19AE42C0F233834FF60E43CFF66D
:10426000FF739C1B06F2124208FA04F52AFA02F0C8
:10427000284303F01FF90123A1F1F871013E1393C4
:1042800000230022C3F6F87302F0D6FF72A3D3E92D
:10429000002303F085F972A3D3E9002302F0CEFFD7
:1042A000044630460D4603F015F96FA3D3E9002309
:1042B00003F076F902460B462046294602F0BEFF7F
:1042C00004460D4603F006FC2946089000222046CD
:1042D000002303F0D7FB002840F0C8820899162974
:1042E00000F2B782644C089D524604EBC5005B4661
:1042F00003C803F0E5FB002800F0EA82089A0023D7
:10430000511E08911293BE1B013E00F1C68200258A
:1043100009960A9508980028C0F2B682099910906B
:104320000A18002009920F90289B092B29D8052BE9
:1043300041F34A801C1F28940024289DA91E0329AC
:1043400021D8DFE811F04505320547034205494B06
:104350004A49C8F3130000280CBF0846184653E723
:104360002BF07F4727F4700141F07F530024504623
:1043700043F44011A2F2FF361C9F139480E740489B
:1043800036E700242894D9F82450002421466C6094
:10439000484601F0F3FCD9F8241028600B684FF070
:1043A000FF30012211900B9329940D900E921D9BCA
:1043B000002BC0F23F8108990E2900F33B812E4B60
:1043C000299A03EBC101002AD1E90001CDE90401DA
:1043D000C0F20185DDE904235046594603F00AFA8C
:1043E00003F078FB064603F075F8DDE9042303F0DB
:1043F000D7F802460B465046594602F01DFF0D9B6A
:10440000DDF82CA006F13002012B04460D460AF817
:10441000012B00F0928000230022C4F2240303F059
:10442000BFF80022002304460D4603F021FB0028BC
:1044300040F0C0800D990B9F0B9E023706EB010BDD
:10444000C7EB0B00C10700F1C880CDF81C90DDE977
:1044500004894CE0AFF3008061436F63A787D23FCC
:10446000B3C8608B288AC63FFB799F501344D33F63
:104470005981000878810008988100086C81000843
:104480005881000803F08CF80022002304460D46F2
:1044900003F0EEFA42464B46002840F0AA8520463B
:1044A000294603F0A7F903F015FB064603F012F8BE
:1044B00042464B4603F074F802460B462046294616
:1044C00002F0BAFE303600230022C4F2240307F8BB
:1044D000016C03F065F800220023BA4604460D463D
:1044E00007F1010703F0C4FA002840F08285424634
:1044F0004B462046294603F07DF903F0EBFA0646C9
:1045000002F0E8FF42464B4603F04AF802460B46EB
:104510002046294602F090FE0023002206F1300CCE
:104520005F4507F801CCBA4604460D46C4F22403A1
:1045300007F10107A6D1DDF81C9022462B46204644
:10454000294602F07BFE04460D462246DDE90401C1
:104550002B4603F097FA40B9DDE9040122462B46C9
:1045600003F086FA30B3F20724D51AF8018C0B9ABF
:10457000CAEB0203DB0740F103851146B8F1390F9E
:104580000AF1FF3312D18B4200F03F8513F8018C02
:104590009A46B8F1390F03F1FF3307D113F8018CB4
:1045A0009A46B8F1390F0AF1FF33ECD008F1010057
:1045B000C2B21A7048460C9901F014FC08982A9B64
:1045C000411C2C9800228AF800201960002800F075
:1045D000B684C0F800A00B980AE6DDE90423204663
:1045E000294603F007F903F075FA064602F072FF58
:1045F000DDE9042302F0D4FF02460B46204629469B
:1046000002F01AFE303600230022C4F2240307F819
:10461000016C02F0C5FFBA460B9F0022002304463E
:104620000D46033703F024FA00283FF40EAFC1E72C
:10463000C11CF2E50E9D002D00F03481289C012C58
:1046400040F3F9830D980F9A451EAA42C0F2E78401
:10465000571B0D9D002DC0F22D860A9C0D9B0A9DB7
:104660004846EA18099D0121EB180A92099301F0C6
:104670009BFC804664B1099A002A09DD0A98099DCD
:10468000A242A8BF2246811AAB1A0A91A41A099322
:104690000F9A002A1ADD0E98002800F0AE84002F31
:1046A00010DD41463A46484601F0F0FD804641465D
:1046B0000C9A484601F082FC0C990646484601F0E7
:1046C00091FB0C960F99CA1B40F0AF83012148461D
:1046D00001F06AFC109D0746002D05DD394648466D
:1046E000109A01F0D3FD0746289B012B40F3598116
:1046F0000025109A002A40F018840121099A89188F
:1047000011F01F0300F0D380C3F12000042840F310
:104710005586C3F11C0209990A9BA41898188A1897
:104720000A9009920A9B002B05DD48460C990A9ACB
:1047300001F0FEFD0C90099A002A04DD3946484636
:1047400001F0F6FD07461298002840F0D6830D9A36
:10475000002A40F3F7830E98002840F0BB800D99A3
:104760000E9DCA0740F1A7838B460C9EDDF82CA056
:1047700010E001F053FB39460646FFF787FB303067
:104780000AF80400314648460A22002301F046FB9D
:10479000651C064639463046FFF778FB6C1C00F175
:1047A000300E0A220023A345314648460AF805E0A8
:1047B000DFDCF3460C96DDF82CA00D9800250128CF
:1047C000ACBF82440AF1010A01220C99484601F06B
:1047D000AFFD39460C9001F065FE002840F351848E
:1047E0001AF8012C0B98CAEB0001CB0707D4392A21
:1047F0000AF1FF3318D113F8012C0B989A46392A85
:104800000AF1FF3310D1834200F0708313F8012CBA
:104810009A46392A03F1FF3306D113F8012C9A4640
:10482000392A0AF1FF33EED001321A704846394670
:1048300001F0D8FAB8F1000F3FF4BCAE002D00F043
:10484000EE82454500F0EB824846294601F0CAFA5F
:10485000E5E20123129356E5102000F0D5FEC9F8D9
:104860002400456085600560C5609EE4089802F0FC
:1048700031FE22462B4603F0FBF800287FF42EADD4
:10488000089A501E089029E50A99089A00258B1A63
:1048900054420A930F94109546E5764200240A96F6
:1048A000099437E50F9F0A9CDDF83880E2E61C2169
:1048B0000A9A09985318641841180A93099131E724
:1048C0004FF6EE30CFF6FF70811B0AFA01F0D0E40C
:1048D000129018E5002C05DD41464846224601F0BD
:1048E00027FD8046002D40F0048446460B9A0B9B22
:1048F0000D98541C19180AF00102DDF830A0099136
:1049000045460A9239465046FFF7C0FA2946804686
:10491000504601F0C7FD324683463946484601F00D
:10492000EFFDC3680246601E079008F1300C002BB3
:1049300000F08A8248461146CDF808C001F052FACC
:10494000DDF808C00123BBF1000FC0F27A8305D166
:10495000289919B90A9A002A00F07383002B00F3F2
:10496000E083099804F801CC844200F0E9835146C1
:104970000A220023484601F051FAB542824600F06F
:10498000908229460A220023484601F047FA314620
:1049900005460A224846002301F040FA0134064643
:1049A000B0E7BAF1000F7FF4A3AECBF31302584681
:1049B000002A40F08B840025C7F6F0750540002DD5
:1049C0003FF497AE0A99099B4D1C581C0A95099013
:1049D00001258EE601260E96299B002B40F32C83A1
:1049E0001D4611930D93D9F824600023172D736091
:1049F00009D9012204235B0003F11401104601329E
:104A0000A942F8D970607168484601F0B7F9D9F841
:104A10002410306008680E2D0B903FF6C8AC002CB7
:104A20003FF4C5AC089FCDE914AB002F40F33D83A4
:104A30009A4E089807F00F0506EBC5010611D1E95B
:104A40000045F10640F1F482954A5046594602F17C
:104A50002003D3E9002302F0CDFE06F00F068246C4
:104A60008B46032786B1DFF8388220462946F207B5
:104A700004D5D8E9002302F093FD0137761008F140
:104A80000808F4D104460D465046594622462B46A6
:104A900002F0B0FE82468B46129B53B10023504673
:104AA00059460022C3F6F07302F0ECFF002840F0F4
:104AB0001584384602F00EFD52465B4602F070FD4A
:104AC00000230022C4F21C0302F0B8FBA1F15075D0
:104AD0000D990446002900F06F82089E1B960D9EDA
:104AE0000E98002800F036836C4A002102EBC603C2
:104AF00053E902230020C3F6E07102F07BFE224658
:104B00002B4602F099FBCDE918015046594602F0B8
:104B1000E1FF044602F0DEFC02460B4650465946D1
:104B200002F08AFB3034DDF82CA0CDE91601DDE976
:104B30001623DDE918015FFA84F80AF8018B02F008
:104B4000BFFF002840F036840021DDE91623002055
:104B5000C3F6F07102F070FB02460B46DDE9180166
:104B600002F0AEFF002840F02184012E40F399822C
:104B70000B9C6FEA0A07A619BD19002305F001076F
:104B80000022C4F22403DDE918011A96189702F0F6
:104B900007FD00230022C4F2240304460D46DDE98C
:104BA000160102F0FDFC0F46064602F093FF834615
:104BB00002F090FC02460B463046394602F03CFBC0
:104BC0000BF130025FFA82F8D3460BF8018B2246D4
:104BD0002B4606460F46DA4602F054FF002840F006
:104BE000E180002132463B460020C3F6F07102F01E
:104BF00023FB22462B4602F045FF002840F0B683F7
:104C00001A98834500F04D821899002941D000235D
:104C10000022C4F224032046294602F0C1FC0023EE
:104C20000022C4F2240304460D463046394602F001
:104C3000B7FC0F46064602F04DFF824602F04AFCE2
:104C400002460B463046394602F0F6FA0AF13003C6
:104C50005FFA83F80BF8018B22462B4606460F4677
:104C6000DA4602F00FFF002840F09C800021324617
:104C70003B460020C3F6F07102F0DEFA22462B46D6
:104C800002F000FF002840F071831A9A934500F06B
:104C90000882CDF85890DDF8689050E098810008BF
:104CA0006082000800210020C3F6F07102F0C4FA0F
:104CB00022462B4602F0E6FE00230022C4F2240323
:104CC000002840F051832046294602F069FC002369
:104CD0000022C4F2240304460D463046394602F051
:104CE0005FFC0F46064602F0F5FE824602F0F2FB3C
:104CF00002460B463046394602F09EFA0AF130026F
:104D00005FFA82F80BF8018B22462B4606460F46C7
:104D100002F0B8FEDA4632463B46002840D1002178
:104D20000020C3F6F07102F087FA22462B4602F00B
:104D3000A9FE002840F01883CB4500F0B081002385
:104D4000204629460022C4F2240302F029FC002355
:104D50000022C4F2240304460D463046394602F0D0
:104D60001FFC0F46064602F0B5FE804602F0B2FB7D
:104D700002460B463046394602F05EFA08F130032F
:104D8000DA465FFA83F80AF8018B22462B4606467C
:104D90000F4602F077FED34632463B46002881D0CC
:104DA000DDF858901B99089104E400220E9229998D
:104DB000089E8A19551C002D11920D953FF713AED0
:104DC000D9F82460002373601DE601250E95EEE7F7
:104DD00000200E9000E60D9B002B3FF7FBAA40F051
:104DE000E08200230022C4F21403DDE9040102F092
:104DF000D7FB52465B4602F059FE0D9FB84600288D
:104E000000F0B5802999DDF82CA0CB4308934846E3
:104E1000394600F0E7FFB8F1000F3FF4CBAB48464E
:104E2000414600F0DFFFFFF7C5BB48460C9901F093
:104E30002DFA0C904AE4139A002A00F0408203F203
:104E400033430F9F0A9C0AE411465046CDF808C030
:104E5000039201F027FB039903464846039300F0B1
:104E6000C1FF039BDDF808C0002B7FF46CAD289ACE
:104E7000002A7FF468AD0A9800287FF464ADBCF185
:104E8000390F5B46CDF830A0E34600F0F280002BEE
:104E900001DD08F1310BDDF81CA0B0460AF801BBBA
:104EA000C4E4294648460A22002300F0B7FF013433
:104EB0000546064626E50C983946FEF7E7FF0D9BAA
:104EC00001250B9A00F1300BAB4282F800B07FF75E
:104ED00072AC48460C990A220E9B00F09FFFDDF849
:104EE00034B00C900646DDF82CA053E408990B9AD8
:104EF0004B1C31200893107098E40C98394601F04F
:104F0000D1FA0028BFF623AC0C990A2200234846A8
:104F100000F084FF08990E9B4A1E0C900892002B0B
:104F200040F0348211980D9011E43B6907EB830047
:104F3000006900F0EDFFC0F12001FFF7DFBB0B9827
:104F4000FFF756B9289B022B7FF705AC002A7FF4A8
:104F500059AF394605220D9B484600F05FFF0746D2
:104F600039460C9801F09EFA00287FF74BAF08985D
:104F7000DDF82CA03123421C0AF8013B089246E7D9
:104F8000B8F1390F0AF1FF337FF410AB13F8018C3D
:104F90009A460B99FFF7F2BA384602F09BFA52464E
:104FA0005B4602F0FDFA00230022C4F21C0302F06B
:104FB00045F90446A1F1507500230022C4F2140300
:104FC0005046594602F038F922462B4682468B4617
:104FD00002F076FD0746002840F0B980224605F130
:104FE00000435046594602F04DFD002859D0B846BE
:104FF00008E7DDF81C90FFF7DDBA48460C990F9AD8
:1050000001F044F90C90FFF761BB08993022481C6D
:105010000B9908900A7031221A70FFF7CBBA0F9BD8
:10502000109FE91A7C1810940F950027FFF711BB09
:10503000DDE914AB022715E5012511950D9529959C
:10504000BEE6002BE346CDF830A064467FF723AFE1
:1050500001220C99484601F06BF939460C9001F099
:1050600021FA002840F38681392C08F1310B7FF4B6
:1050700012AFDDF81CA039220AF8012BB046FFF769
:10508000B1BB03D11BF0010F7FF4AAAB524612F85B
:10509000011C9246013A3029F9D0FFF7C7BBDDF871
:1050A0005890DDE914ABFFF782B9089C6442002CEC
:1050B00000F00F81B34B04F00F0203EBC207DDE9F0
:1050C0001401D7E9002302F06BFA241182468B46C3
:1050D00000F06981AC4D0227E30704D5D5E9002330
:1050E00002F05EFA013708356410F5D182468B462E
:1050F000D2E4D8F80410484600F040FED8F810106A
:1051000004468D1CAA0008F10C0100F10C0000F00F
:10511000BBFD48462146012201F00AF90646FFF789
:10512000E5BBBCF1390FE346CDF830A0A1D0DDF8E6
:105130001CA00CF1010E0AF801EBB046FFF776BB9C
:10514000CDF830A0E346A246B046FFF73DBB0027AE
:10515000B8460CE78B4B771E03EBC70122462B4664
:10516000D1E900011A9702F01BFACDE91601504669
:10517000594602F0AFFC074602F0ACF902460B4676
:105180005046594602F058F8DDF82CA007F13002DD
:10519000012E04460D460AF8012B77D00B9C002304
:1051A00004F1FF38E543B04405EB08060022C4F2E1
:1051B000240306F00107189702F0F2F904460F469F
:1051C00002F088FC834602F085F902460B46204631
:1051D000394602F031F80B9A0BF13003C245044610
:1051E0000D46537056464FD0189FDFB10023002262
:1051F000C4F2240302F0D4F905460F4602F06AFC1B
:10520000834602F067F902460B462846394602F00B
:1052100013F8564604460BF1300006F8010F4645D8
:105220000D4631D02046294600230022C4F2240333
:1052300002F0B6F90D46044602F04CFC074602F0B7
:1052400049F902460B462046294601F0F5FF303762
:1052500000230022C4F2240306F8017F02F0A0F923
:105260000D46044602F036FC074602F033F93037AB
:1052700002460B462046294601F0DEFF06F8017F74
:105280004645D1D104460D461A998A44002300228E
:10529000C3F6E073DDE9160101F0D0FF22462B468C
:1052A00002F0F0FB002844D01B991AF8018C0891F9
:1052B000FFF75DB90A980023441BFFF7D0B91C998A
:1052C0000F9FC1F136030A9CFFF7C9B95546FFF796
:1052D00010BADDE914AB0227FFF7DEBB0D980028FA
:1052E0003FF45AAE119A002A7FF7DBAE002300226A
:1052F000C4F224035046594602F052F98246781C03
:105300008B4602F0E7F802460B465046594602F03B
:1053100047F900230022C4F21C0301F08FFF0D4661
:10532000089904464E1E1B96A5F15075119EFFF775
:10533000D7BB0021DDE916230020C3F6E07101F0A0
:105340007BFF22462B4602F0BBFB00283FF4A9AEB0
:10535000534613F8012C9A46302A03F1FF33F8D054
:105360001B980890FFF726B9DDF858901B98089015
:10537000FFF7FDB87FF48FAD1BF0010F3FF48BAD4D
:1053800072E600BF988100086082000841464846E6
:105390000A22002300F042FD119980460D91FFF78B
:1053A000D6B9002723E60227FFF776BB1B9B08939D
:1053B000FFF7DDB81B9A0892FFF7FCB83FF4B2A9DB
:1053C000C3F13C01FFF774BA0124FEF7B6BF00BF7A
:1053D000F8B5224D0F46044600F0CCFCAB685E6881
:1053E00026F0030606F6EF70C11B0A0B571E3F039B
:1053F000B7F5805F07DB0021204601F057FAAB6864
:105400009919884204D0204600F0B6FC0020F8BD6F
:105410007942204601F04AFA01300DD0104BA868BD
:105420001A68F61B46F00106D71B466020461F602F
:1054300000F0A2FC0120F8BD0021204601F036FA60
:10544000AB68C21A0F2ADEDD064942F00102096884
:105450005A60401A02490860D5E700BF44010020A5
:1054600070050020500500202DE9F0410D4606464C
:10547000002955D000F07EFC55F8041CDFF86CC103
:10548000A5F1080421F00103E218DCF808005768D0
:10549000904227F0030765D011F00101576032D028
:1054A0000021D0194068C00706D4DB199068002994
:1054B0004AD0D268C260906043F001006060E3505F
:1054C000E1B9B3F5007F2DD35A0A042A66D89809AA
:1054D000383042000CEB820EDEF80820434972455A
:1054E00062D0506820F003018B4202D29268964548
:1054F000F7D1D368E360A260D4609C603046BDE819
:10550000F04100F039BC55F8085C0CF10808641B48
:10551000A0685B1940453FD0E568C560A860C0E75A
:10552000BDE8F081D9088A10012000FA02F00CEBE6
:10553000C103DCF804109A680843E360A260CCF869
:1055400004009C60D460D9E7294DA842B1D143F052
:105550000101CCF81440CCF81040E060A06061601C
:10556000E350CBE7FF18CB0707D455F8080C241AF3
:10557000E368A2683F18D3609A601E4847F00101B3
:10558000036861609F42CCF80840B7D31A4A30469E
:105590001168FFF71DFFB1E7012182E7142A0CD83B
:1055A00002F15B00420095E78010012505FA00F545
:1055B00048681346284348609CE7542A03D8180BD0
:1055C0006E30420086E7B2F5AA7F03D8D80B773059
:1055D00042007FE740F254518A4203D8980C7C3055
:1055E000420077E7FC227E2074E700BF44010020E0
:1055F0004C0100204C0500206C05002040F20C10EE
:10560000C2F20000704700BF40F20813C2F200036C
:105610000146186800F000B82DE9F04F01F10B05C4
:10562000162D83B0064627D935F0070527D4A942A1
:1056300025D8304600F09EFBB5F5FC7F23D2B94F4C
:105640004FEAD50C07EBCC02D468944200F0D88125
:105650006368E26823F0030163185868A16840F0AA
:1056600001005860CA609160304600F085FB083444
:10567000204603B0BDE8F08F1025A942D9D90C24EB
:1056800034600024F4E75FEA552C00F08980BCF117
:10569000040F00F253814FEA951707F1380E4FEAD5
:1056A0004E01A04F07EB8101CC68A14205D10CE06F
:1056B000002A7ADAE468A14207D0636823F0030085
:1056C000421B0F2AF4DD0EF1FF3E0EF1010C954B4B
:1056D0003C6903F1080E744500F07081616821F0A7
:1056E00003014A1B0F2A00F35681002AC3F814E075
:1056F000C3F810E067DAB1F5007F80F02D81C908AA
:1057000088104FF0010808FA00F803EBC1015A684D
:10571000886848EA0202E160A0605A608C60C46058
:1057200001204FEAAC0400FA04F0904255D802423E
:1057300006D12CF0030C400002420CF1040CFAD00C
:1057400007EBCC094C46E046E3689C4207D137E1C1
:10575000002A80F25F81DB689C4200F03181596849
:1057600021F003014A1B0F2AF2DD1C46D86854F8C9
:1057700008CF591945F0010842F00105CCF80C009A
:10578000C0F808C0C3F8048079613961C1F80CE041
:10579000C1F808E04D608A50304600F0EDFA67E746
:1057A0004FEAD50E4FEA4E017BE722185068E368B6
:1057B000A16840F001005060CB609960304600F075
:1057C000DBFA083454E762185368304643F00101AD
:1057D000516000F0D1FA08344AE7BC68606820F0F4
:1057E0000309A94504D3C5EB09030F2B00F38D80F2
:1057F0004D4A4E4B11681868013104EB090B05EB5B
:10580000000300F0518103F580500F3020F47F61D8
:1058100021F00F0C614630468DE8041001F046F887
:105820009DE80410B0F1FF3F804600F046818345BB
:1058300000F20881DFF800A1C345DAF800306344C4
:10584000CAF8003000F03E811268013200F04B814E
:10585000CBEB080B5B44CAF8003018F0070100F0EE
:105860000481C1F10800C1F58053804403F10802AE
:1058700008EB0C010805030DC3EB020B304659463B
:1058800001F014F8431C00F03A81C8EB00020BEB66
:10589000020141F00100DAF80030BC425B44C7F875
:1058A0000880CAF80030C8F8040015D0B9F10F0F0D
:1058B00040F2E9806168A9F10C0222F0070201F0D0
:1058C000010C0520A11842EA0C0E0F2AC4F804E0CE
:1058D0004860886000F20B81154ABC6810688342FA
:1058E00088BF1360134A11688B4288BF13606368D6
:1058F00023F00300A842C5EB000301D30F2B04DC07
:10590000304600F039FA0024B2E6621943F0010192
:1059100045F00105656030465160BA6000F02CFA30
:105920000834A5E644010020500500206C05002045
:10593000680500206405002070050020BCF1140FEC
:1059400077D9BCF1540F00F286804FEA153404F188
:105950006E0E4FEA4E01A4E6480A04286ED91428B8
:1059600000F2A58000F15B02500007EB8000836825
:10597000DFF8C88183427BD05A6822F0030291424B
:1059800002D29B689842F7D1D9687A68E160A36037
:10599000DC608C60C4E6611942F0010045F001054D
:1059A0006560596119614860C1F80CE0C1F808E010
:1059B0008A50304600F0E0F9083459E65A68AFE6FC
:1059C00008F10108083418F0030F7FF4BDAE494612
:1059D0001CF0030FA1F108040CF1FF3C00F0A280C1
:1059E0000968A142F4D07C684000A0423FF6F5AEC1
:1059F00000283FF4F2AE044200F09980C4469FE6CE
:105A000004F108036469A34208BF0CF1020C3FF4DF
:105A10005EAE1DE6591848681C4654F8082FDB682E
:105A200040F001004860D3609A60304600F0A4F96D
:105A30001EE60CF15B0E4FEA4E0132E68A0938325F
:105A4000500092E7BC423FF4F5AE3C4CA46862685B
:105A500022F003004EE7BCF5AA7F1AD84FEAD532F0
:105A600002F1770E4FEA4E011BE64FF48052FFE63B
:105A70009110012000FA01F0D8F8042019460243E1
:105A8000C8F8042082E70122C8F804204446002018
:105A900030E740F254539C4521D84FEA954000F13D
:105AA0007C0E4FEA4E01FCE503F1100CB2E65428DF
:105AB00029D80A0B6E32500057E7BC68616821F0A4
:105AC000030017E74FEA0B50010D00297FF4BCAE2D
:105AD000B8680CEB090141F001044460FCE6FC21CC
